{
  "_format": "hh-sol-artifact-1",
  "contractName": "ChiosNFT",
  "sourceName": "contracts/ChiosNFT.sol",
  "abi": [
    {
      "inputs": [],
      "stateMutability": "nonpayable",
      "type": "constructor"
    },
    {
      "anonymous": false,
      "inputs": [
        {
          "indexed": false,
          "internalType": "address",
          "name": "previousAdmin",
          "type": "address"
        },
        {
          "indexed": false,
          "internalType": "address",
          "name": "newAdmin",
          "type": "address"
        }
      ],
      "name": "AdminChanged",
      "type": "event"
    },
    {
      "anonymous": false,
      "inputs": [
        {
          "indexed": true,
          "internalType": "address",
          "name": "owner",
          "type": "address"
        },
        {
          "indexed": true,
          "internalType": "address",
          "name": "approved",
          "type": "address"
        },
        {
          "indexed": true,
          "internalType": "uint256",
          "name": "tokenId",
          "type": "uint256"
        }
      ],
      "name": "Approval",
      "type": "event"
    },
    {
      "anonymous": false,
      "inputs": [
        {
          "indexed": true,
          "internalType": "address",
          "name": "owner",
          "type": "address"
        },
        {
          "indexed": true,
          "internalType": "address",
          "name": "operator",
          "type": "address"
        },
        {
          "indexed": false,
          "internalType": "bool",
          "name": "approved",
          "type": "bool"
        }
      ],
      "name": "ApprovalForAll",
      "type": "event"
    },
    {
      "anonymous": false,
      "inputs": [
        {
          "indexed": true,
          "internalType": "address",
          "name": "beacon",
          "type": "address"
        }
      ],
      "name": "BeaconUpgraded",
      "type": "event"
    },
    {
      "anonymous": false,
      "inputs": [
        {
          "indexed": false,
          "internalType": "uint8",
          "name": "version",
          "type": "uint8"
        }
      ],
      "name": "Initialized",
      "type": "event"
    },
    {
      "anonymous": false,
      "inputs": [
        {
          "indexed": true,
          "internalType": "address",
          "name": "previousOwner",
          "type": "address"
        },
        {
          "indexed": true,
          "internalType": "address",
          "name": "newOwner",
          "type": "address"
        }
      ],
      "name": "OwnershipTransferred",
      "type": "event"
    },
    {
      "anonymous": false,
      "inputs": [
        {
          "indexed": false,
          "internalType": "address",
          "name": "account",
          "type": "address"
        }
      ],
      "name": "Paused",
      "type": "event"
    },
    {
      "anonymous": false,
      "inputs": [
        {
          "indexed": true,
          "internalType": "address",
          "name": "from",
          "type": "address"
        },
        {
          "indexed": true,
          "internalType": "address",
          "name": "to",
          "type": "address"
        },
        {
          "indexed": true,
          "internalType": "uint256",
          "name": "tokenId",
          "type": "uint256"
        }
      ],
      "name": "Transfer",
      "type": "event"
    },
    {
      "anonymous": false,
      "inputs": [
        {
          "indexed": false,
          "internalType": "address",
          "name": "account",
          "type": "address"
        }
      ],
      "name": "Unpaused",
      "type": "event"
    },
    {
      "anonymous": false,
      "inputs": [
        {
          "indexed": true,
          "internalType": "address",
          "name": "implementation",
          "type": "address"
        }
      ],
      "name": "Upgraded",
      "type": "event"
    },
    {
      "inputs": [
        {
          "internalType": "address",
          "name": "to",
          "type": "address"
        },
        {
          "internalType": "uint256",
          "name": "tokenId",
          "type": "uint256"
        }
      ],
      "name": "approve",
      "outputs": [],
      "stateMutability": "nonpayable",
      "type": "function"
    },
    {
      "inputs": [
        {
          "internalType": "address",
          "name": "owner",
          "type": "address"
        }
      ],
      "name": "balanceOf",
      "outputs": [
        {
          "internalType": "uint256",
          "name": "",
          "type": "uint256"
        }
      ],
      "stateMutability": "view",
      "type": "function"
    },
    {
      "inputs": [
        {
          "internalType": "uint256",
          "name": "tokenIndex",
          "type": "uint256"
        }
      ],
      "name": "burn",
      "outputs": [],
      "stateMutability": "nonpayable",
      "type": "function"
    },
    {
      "inputs": [
        {
          "internalType": "uint256",
          "name": "tokenId",
          "type": "uint256"
        }
      ],
      "name": "getApproved",
      "outputs": [
        {
          "internalType": "address",
          "name": "",
          "type": "address"
        }
      ],
      "stateMutability": "view",
      "type": "function"
    },
    {
      "inputs": [],
      "name": "initialize",
      "outputs": [],
      "stateMutability": "nonpayable",
      "type": "function"
    },
    {
      "inputs": [
        {
          "internalType": "address",
          "name": "owner",
          "type": "address"
        },
        {
          "internalType": "address",
          "name": "operator",
          "type": "address"
        }
      ],
      "name": "isApprovedForAll",
      "outputs": [
        {
          "internalType": "bool",
          "name": "",
          "type": "bool"
        }
      ],
      "stateMutability": "view",
      "type": "function"
    },
    {
      "inputs": [],
      "name": "name",
      "outputs": [
        {
          "internalType": "string",
          "name": "",
          "type": "string"
        }
      ],
      "stateMutability": "view",
      "type": "function"
    },
    {
      "inputs": [],
      "name": "owner",
      "outputs": [
        {
          "internalType": "address",
          "name": "",
          "type": "address"
        }
      ],
      "stateMutability": "view",
      "type": "function"
    },
    {
      "inputs": [
        {
          "internalType": "uint256",
          "name": "tokenId",
          "type": "uint256"
        }
      ],
      "name": "ownerOf",
      "outputs": [
        {
          "internalType": "address",
          "name": "",
          "type": "address"
        }
      ],
      "stateMutability": "view",
      "type": "function"
    },
    {
      "inputs": [],
      "name": "pause",
      "outputs": [],
      "stateMutability": "nonpayable",
      "type": "function"
    },
    {
      "inputs": [],
      "name": "paused",
      "outputs": [
        {
          "internalType": "bool",
          "name": "",
          "type": "bool"
        }
      ],
      "stateMutability": "view",
      "type": "function"
    },
    {
      "inputs": [],
      "name": "proxiableUUID",
      "outputs": [
        {
          "internalType": "bytes32",
          "name": "",
          "type": "bytes32"
        }
      ],
      "stateMutability": "view",
      "type": "function"
    },
    {
      "inputs": [],
      "name": "renounceOwnership",
      "outputs": [],
      "stateMutability": "nonpayable",
      "type": "function"
    },
    {
      "inputs": [],
      "name": "safeMint",
      "outputs": [],
      "stateMutability": "nonpayable",
      "type": "function"
    },
    {
      "inputs": [
        {
          "internalType": "address",
          "name": "from",
          "type": "address"
        },
        {
          "internalType": "address",
          "name": "to",
          "type": "address"
        },
        {
          "internalType": "uint256",
          "name": "tokenId",
          "type": "uint256"
        }
      ],
      "name": "safeTransferFrom",
      "outputs": [],
      "stateMutability": "nonpayable",
      "type": "function"
    },
    {
      "inputs": [
        {
          "internalType": "address",
          "name": "from",
          "type": "address"
        },
        {
          "internalType": "address",
          "name": "to",
          "type": "address"
        },
        {
          "internalType": "uint256",
          "name": "tokenId",
          "type": "uint256"
        },
        {
          "internalType": "bytes",
          "name": "data",
          "type": "bytes"
        }
      ],
      "name": "safeTransferFrom",
      "outputs": [],
      "stateMutability": "nonpayable",
      "type": "function"
    },
    {
      "inputs": [
        {
          "internalType": "address",
          "name": "operator",
          "type": "address"
        },
        {
          "internalType": "bool",
          "name": "approved",
          "type": "bool"
        }
      ],
      "name": "setApprovalForAll",
      "outputs": [],
      "stateMutability": "nonpayable",
      "type": "function"
    },
    {
      "inputs": [
        {
          "internalType": "bytes4",
          "name": "interfaceId",
          "type": "bytes4"
        }
      ],
      "name": "supportsInterface",
      "outputs": [
        {
          "internalType": "bool",
          "name": "",
          "type": "bool"
        }
      ],
      "stateMutability": "view",
      "type": "function"
    },
    {
      "inputs": [],
      "name": "symbol",
      "outputs": [
        {
          "internalType": "string",
          "name": "",
          "type": "string"
        }
      ],
      "stateMutability": "view",
      "type": "function"
    },
    {
      "inputs": [
        {
          "internalType": "uint256",
          "name": "index",
          "type": "uint256"
        }
      ],
      "name": "tokenByIndex",
      "outputs": [
        {
          "internalType": "uint256",
          "name": "",
          "type": "uint256"
        }
      ],
      "stateMutability": "view",
      "type": "function"
    },
    {
      "inputs": [
        {
          "internalType": "address",
          "name": "owner",
          "type": "address"
        },
        {
          "internalType": "uint256",
          "name": "index",
          "type": "uint256"
        }
      ],
      "name": "tokenOfOwnerByIndex",
      "outputs": [
        {
          "internalType": "uint256",
          "name": "",
          "type": "uint256"
        }
      ],
      "stateMutability": "view",
      "type": "function"
    },
    {
      "inputs": [
        {
          "internalType": "uint256",
          "name": "tokenId",
          "type": "uint256"
        }
      ],
      "name": "tokenURI",
      "outputs": [
        {
          "internalType": "string",
          "name": "",
          "type": "string"
        }
      ],
      "stateMutability": "view",
      "type": "function"
    },
    {
      "inputs": [],
      "name": "totalSupply",
      "outputs": [
        {
          "internalType": "uint256",
          "name": "",
          "type": "uint256"
        }
      ],
      "stateMutability": "view",
      "type": "function"
    },
    {
      "inputs": [
        {
          "internalType": "address",
          "name": "from",
          "type": "address"
        },
        {
          "internalType": "address",
          "name": "to",
          "type": "address"
        },
        {
          "internalType": "uint256",
          "name": "tokenId",
          "type": "uint256"
        }
      ],
      "name": "transferFrom",
      "outputs": [],
      "stateMutability": "nonpayable",
      "type": "function"
    },
    {
      "inputs": [
        {
          "internalType": "address",
          "name": "newOwner",
          "type": "address"
        }
      ],
      "name": "transferOwnership",
      "outputs": [],
      "stateMutability": "nonpayable",
      "type": "function"
    },
    {
      "inputs": [],
      "name": "unpause",
      "outputs": [],
      "stateMutability": "nonpayable",
      "type": "function"
    },
    {
      "inputs": [
        {
          "internalType": "address",
          "name": "newImplementation",
          "type": "address"
        }
      ],
      "name": "upgradeTo",
      "outputs": [],
      "stateMutability": "nonpayable",
      "type": "function"
    },
    {
      "inputs": [
        {
          "internalType": "address",
          "name": "newImplementation",
          "type": "address"
        },
        {
          "internalType": "bytes",
          "name": "data",
          "type": "bytes"
        }
      ],
      "name": "upgradeToAndCall",
      "outputs": [],
      "stateMutability": "payable",
      "type": "function"
    }
  ],
  "bytecode": "0x60a06040523073ffffffffffffffffffffffffffffffffffffffff1660809073ffffffffffffffffffffffffffffffffffffffff168152503480156200004457600080fd5b50620000556200005b60201b60201c565b62000206565b600060019054906101000a900460ff1615620000ae576040517f08c379a0000000000000000000000000000000000000000000000000000000008152600401620000a590620001a9565b60405180910390fd5b60ff801660008054906101000a900460ff1660ff161015620001205760ff6000806101000a81548160ff021916908360ff1602179055507f7f26b83ff96e1f2b6a682f133852f6798a09c465da95921460cefb384740249860ff604051620001179190620001e9565b60405180910390a15b565b600082825260208201905092915050565b7f496e697469616c697a61626c653a20636f6e747261637420697320696e69746960008201527f616c697a696e6700000000000000000000000000000000000000000000000000602082015250565b60006200019160278362000122565b91506200019e8262000133565b604082019050919050565b60006020820190508181036000830152620001c48162000182565b9050919050565b600060ff82169050919050565b620001e381620001cb565b82525050565b6000602082019050620002006000830184620001d8565b92915050565b60805161500c6200023e6000396000818161099201528181610a2001528181610b5001528181610bde0152610cff015261500c6000f3fe6080604052600436106101b75760003560e01c80635c975abb116100ec5780638da5cb5b1161008a578063b88d4fde11610064578063b88d4fde146105b1578063c87b56dd146105da578063e985e9c514610617578063f2fde38b14610654576101b7565b80638da5cb5b1461053257806395d89b411461055d578063a22cb46514610588576101b7565b806370a08231116100c657806370a08231146104b0578063715018a6146104ed5780638129fc1c146105045780638456cb591461051b576101b7565b80635c975abb146104315780636352211e1461045c5780636871ee4014610499576101b7565b80633659cfe61161015957806342966c681161013357806342966c68146103845780634f1ef286146103ad5780634f6ccce7146103c957806352d1902d14610406576101b7565b80633659cfe61461031b5780633f4ba83a1461034457806342842e0e1461035b576101b7565b8063095ea7b311610195578063095ea7b31461026157806318160ddd1461028a57806323b872dd146102b55780632f745c59146102de576101b7565b806301ffc9a7146101bc57806306fdde03146101f9578063081812fc14610224575b600080fd5b3480156101c857600080fd5b506101e360048036038101906101de9190613521565b61067d565b6040516101f09190613569565b60405180910390f35b34801561020557600080fd5b5061020e61068f565b60405161021b9190613614565b60405180910390f35b34801561023057600080fd5b5061024b6004803603810190610246919061366c565b610721565b60405161025891906136da565b60405180910390f35b34801561026d57600080fd5b5061028860048036038101906102839190613721565b610767565b005b34801561029657600080fd5b5061029f61087e565b6040516102ac9190613770565b60405180910390f35b3480156102c157600080fd5b506102dc60048036038101906102d7919061378b565b61088b565b005b3480156102ea57600080fd5b5061030560048036038101906103009190613721565b6108eb565b6040516103129190613770565b60405180910390f35b34801561032757600080fd5b50610342600480360381019061033d91906137de565b610990565b005b34801561035057600080fd5b50610359610b18565b005b34801561036757600080fd5b50610382600480360381019061037d919061378b565b610b22565b005b34801561039057600080fd5b506103ab60048036038101906103a6919061366c565b610b42565b005b6103c760048036038101906103c29190613940565b610b4e565b005b3480156103d557600080fd5b506103f060048036038101906103eb919061366c565b610c8a565b6040516103fd9190613770565b60405180910390f35b34801561041257600080fd5b5061041b610cfb565b60405161042891906139b5565b60405180910390f35b34801561043d57600080fd5b50610446610db4565b6040516104539190613569565b60405180910390f35b34801561046857600080fd5b50610483600480360381019061047e919061366c565b610dcb565b60405161049091906136da565b60405180910390f35b3480156104a557600080fd5b506104ae610e51565b005b3480156104bc57600080fd5b506104d760048036038101906104d291906137de565b610e78565b6040516104e49190613770565b60405180910390f35b3480156104f957600080fd5b50610502610f2f565b005b34801561051057600080fd5b50610519610f43565b005b34801561052757600080fd5b50610530611115565b005b34801561053e57600080fd5b5061054761111f565b60405161055491906136da565b60405180910390f35b34801561056957600080fd5b50610572611149565b60405161057f9190613614565b60405180910390f35b34801561059457600080fd5b506105af60048036038101906105aa91906139fc565b6111db565b005b3480156105bd57600080fd5b506105d860048036038101906105d39190613a3c565b6111f1565b005b3480156105e657600080fd5b5061060160048036038101906105fc919061366c565b611253565b60405161060e9190613614565b60405180910390f35b34801561062357600080fd5b5061063e60048036038101906106399190613abf565b6112bb565b60405161064b9190613569565b60405180910390f35b34801561066057600080fd5b5061067b600480360381019061067691906137de565b61134f565b005b6000610688826113d2565b9050919050565b60606065805461069e90613b2e565b80601f01602080910402602001604051908101604052809291908181526020018280546106ca90613b2e565b80156107175780601f106106ec57610100808354040283529160200191610717565b820191906000526020600020905b8154815290600101906020018083116106fa57829003601f168201915b5050505050905090565b600061072c8261144c565b6069600083815260200190815260200160002060009054906101000a900473ffffffffffffffffffffffffffffffffffffffff169050919050565b600061077282610dcb565b90508073ffffffffffffffffffffffffffffffffffffffff168373ffffffffffffffffffffffffffffffffffffffff16036107e2576040517f08c379a00000000000000000000000000000000000000000000000000000000081526004016107d990613bd1565b60405180910390fd5b8073ffffffffffffffffffffffffffffffffffffffff16610801611497565b73ffffffffffffffffffffffffffffffffffffffff161480610830575061082f8161082a611497565b6112bb565b5b61086f576040517f08c379a000000000000000000000000000000000000000000000000000000000815260040161086690613c63565b60405180910390fd5b610879838361149f565b505050565b6000609980549050905090565b61089c610896611497565b82611558565b6108db576040517f08c379a00000000000000000000000000000000000000000000000000000000081526004016108d290613cf5565b60405180910390fd5b6108e68383836115ed565b505050565b60006108f683610e78565b8210610937576040517f08c379a000000000000000000000000000000000000000000000000000000000815260040161092e90613d87565b60405180910390fd5b609760008473ffffffffffffffffffffffffffffffffffffffff1673ffffffffffffffffffffffffffffffffffffffff168152602001908152602001600020600083815260200190815260200160002054905092915050565b7f000000000000000000000000000000000000000000000000000000000000000073ffffffffffffffffffffffffffffffffffffffff163073ffffffffffffffffffffffffffffffffffffffff1603610a1e576040517f08c379a0000000000000000000000000000000000000000000000000000000008152600401610a1590613e19565b60405180910390fd5b7f000000000000000000000000000000000000000000000000000000000000000073ffffffffffffffffffffffffffffffffffffffff16610a5d6118e6565b73ffffffffffffffffffffffffffffffffffffffff1614610ab3576040517f08c379a0000000000000000000000000000000000000000000000000000000008152600401610aaa90613eab565b60405180910390fd5b610abc8161193d565b610b1581600067ffffffffffffffff811115610adb57610ada613815565b5b6040519080825280601f01601f191660200182016040528015610b0d5781602001600182028036833780820191505090505b506000611948565b50565b610b20611ab6565b565b610b3d838383604051806020016040528060008152506111f1565b505050565b610b4b81611b19565b50565b7f000000000000000000000000000000000000000000000000000000000000000073ffffffffffffffffffffffffffffffffffffffff163073ffffffffffffffffffffffffffffffffffffffff1603610bdc576040517f08c379a0000000000000000000000000000000000000000000000000000000008152600401610bd390613e19565b60405180910390fd5b7f000000000000000000000000000000000000000000000000000000000000000073ffffffffffffffffffffffffffffffffffffffff16610c1b6118e6565b73ffffffffffffffffffffffffffffffffffffffff1614610c71576040517f08c379a0000000000000000000000000000000000000000000000000000000008152600401610c6890613eab565b60405180910390fd5b610c7a8261193d565b610c8682826001611948565b5050565b6000610c9461087e565b8210610cd5576040517f08c379a0000000000000000000000000000000000000000000000000000000008152600401610ccc90613f3d565b60405180910390fd5b60998281548110610ce957610ce8613f5d565b5b90600052602060002001549050919050565b60007f000000000000000000000000000000000000000000000000000000000000000073ffffffffffffffffffffffffffffffffffffffff163073ffffffffffffffffffffffffffffffffffffffff1614610d8b576040517f08c379a0000000000000000000000000000000000000000000000000000000008152600401610d8290613ffe565b60405180910390fd5b7f360894a13ba1a3210667c828492db98dca3e2076cc3735a920a3ca505d382bbc60001b905090565b600060c960009054906101000a900460ff16905090565b600080610dd783611b75565b9050600073ffffffffffffffffffffffffffffffffffffffff168173ffffffffffffffffffffffffffffffffffffffff1603610e48576040517f08c379a0000000000000000000000000000000000000000000000000000000008152600401610e3f9061406a565b60405180910390fd5b80915050919050565b6000610e5e6101c3611bb2565b9050610e6b6101c3611bc0565b610e753382611bd6565b50565b60008073ffffffffffffffffffffffffffffffffffffffff168273ffffffffffffffffffffffffffffffffffffffff1603610ee8576040517f08c379a0000000000000000000000000000000000000000000000000000000008152600401610edf906140fc565b60405180910390fd5b606860008373ffffffffffffffffffffffffffffffffffffffff1673ffffffffffffffffffffffffffffffffffffffff168152602001908152602001600020549050919050565b610f37611bf4565b610f416000611c72565b565b60008060019054906101000a900460ff16159050808015610f745750600160008054906101000a900460ff1660ff16105b80610fa15750610f8330611d38565b158015610fa05750600160008054906101000a900460ff1660ff16145b5b610fe0576040517f08c379a0000000000000000000000000000000000000000000000000000000008152600401610fd79061418e565b60405180910390fd5b60016000806101000a81548160ff021916908360ff160217905550801561101d576001600060016101000a81548160ff0219169083151502179055505b6110916040518060400160405280600581526020017f4348494f530000000000000000000000000000000000000000000000000000008152506040518060400160405280600381526020017f4348530000000000000000000000000000000000000000000000000000000000815250611d5b565b611099611db8565b6110a1611e09565b6110a9611e62565b6110b1611ebb565b6110b9611f0c565b80156111125760008060016101000a81548160ff0219169083151502179055507f7f26b83ff96e1f2b6a682f133852f6798a09c465da95921460cefb384740249860016040516111099190614200565b60405180910390a15b50565b61111d611f5d565b565b600060fb60009054906101000a900473ffffffffffffffffffffffffffffffffffffffff16905090565b60606066805461115890613b2e565b80601f016020809104026020016040519081016040528092919081815260200182805461118490613b2e565b80156111d15780601f106111a6576101008083540402835291602001916111d1565b820191906000526020600020905b8154815290600101906020018083116111b457829003601f168201915b5050505050905090565b6111ed6111e6611497565b8383611fc0565b5050565b6112026111fc611497565b83611558565b611241576040517f08c379a000000000000000000000000000000000000000000000000000000000815260040161123890613cf5565b60405180910390fd5b61124d8484848461212c565b50505050565b606061125e8261144c565b6000611268612188565b9050600081511161128857604051806020016040528060008152506112b3565b806112928461219f565b6040516020016112a3929190614257565b6040516020818303038152906040525b915050919050565b6000606a60008473ffffffffffffffffffffffffffffffffffffffff1673ffffffffffffffffffffffffffffffffffffffff16815260200190815260200160002060008373ffffffffffffffffffffffffffffffffffffffff1673ffffffffffffffffffffffffffffffffffffffff16815260200190815260200160002060009054906101000a900460ff16905092915050565b611357611bf4565b600073ffffffffffffffffffffffffffffffffffffffff168173ffffffffffffffffffffffffffffffffffffffff16036113c6576040517f08c379a00000000000000000000000000000000000000000000000000000000081526004016113bd906142ed565b60405180910390fd5b6113cf81611c72565b50565b60007f780e9d63000000000000000000000000000000000000000000000000000000007bffffffffffffffffffffffffffffffffffffffffffffffffffffffff1916827bffffffffffffffffffffffffffffffffffffffffffffffffffffffff1916148061144557506114448261226d565b5b9050919050565b6114558161234f565b611494576040517f08c379a000000000000000000000000000000000000000000000000000000000815260040161148b9061406a565b60405180910390fd5b50565b600033905090565b816069600083815260200190815260200160002060006101000a81548173ffffffffffffffffffffffffffffffffffffffff021916908373ffffffffffffffffffffffffffffffffffffffff160217905550808273ffffffffffffffffffffffffffffffffffffffff1661151283610dcb565b73ffffffffffffffffffffffffffffffffffffffff167f8c5be1e5ebec7d5bd14f71427d1e84f3dd0314c0f7b2291e5b200ac8c7c3b92560405160405180910390a45050565b60008061156483610dcb565b90508073ffffffffffffffffffffffffffffffffffffffff168473ffffffffffffffffffffffffffffffffffffffff1614806115a657506115a581856112bb565b5b806115e457508373ffffffffffffffffffffffffffffffffffffffff166115cc84610721565b73ffffffffffffffffffffffffffffffffffffffff16145b91505092915050565b8273ffffffffffffffffffffffffffffffffffffffff1661160d82610dcb565b73ffffffffffffffffffffffffffffffffffffffff1614611663576040517f08c379a000000000000000000000000000000000000000000000000000000000815260040161165a9061437f565b60405180910390fd5b600073ffffffffffffffffffffffffffffffffffffffff168273ffffffffffffffffffffffffffffffffffffffff16036116d2576040517f08c379a00000000000000000000000000000000000000000000000000000000081526004016116c990614411565b60405180910390fd5b6116df8383836001612390565b8273ffffffffffffffffffffffffffffffffffffffff166116ff82610dcb565b73ffffffffffffffffffffffffffffffffffffffff1614611755576040517f08c379a000000000000000000000000000000000000000000000000000000000815260040161174c9061437f565b60405180910390fd5b6069600082815260200190815260200160002060006101000a81549073ffffffffffffffffffffffffffffffffffffffff02191690556001606860008573ffffffffffffffffffffffffffffffffffffffff1673ffffffffffffffffffffffffffffffffffffffff168152602001908152602001600020600082825403925050819055506001606860008473ffffffffffffffffffffffffffffffffffffffff1673ffffffffffffffffffffffffffffffffffffffff16815260200190815260200160002060008282540192505081905550816067600083815260200190815260200160002060006101000a81548173ffffffffffffffffffffffffffffffffffffffff021916908373ffffffffffffffffffffffffffffffffffffffff160217905550808273ffffffffffffffffffffffffffffffffffffffff168473ffffffffffffffffffffffffffffffffffffffff167fddf252ad1be2c89b69c2b068fc378daa952ba7f163c4a11628f55a4df523b3ef60405160405180910390a46118e183838360016123aa565b505050565b60006119147f360894a13ba1a3210667c828492db98dca3e2076cc3735a920a3ca505d382bbc60001b6123b0565b60000160009054906101000a900473ffffffffffffffffffffffffffffffffffffffff16905090565b611945611bf4565b50565b6119747f4910fdfa16fed3260ed0e7147f7cc6da11a60208b5b9406d12a635614ffd914360001b6123ba565b60000160009054906101000a900460ff161561199857611993836123c4565b611ab1565b8273ffffffffffffffffffffffffffffffffffffffff166352d1902d6040518163ffffffff1660e01b8152600401602060405180830381865afa925050508015611a0057506040513d601f19601f820116820180604052508101906119fd919061445d565b60015b611a3f576040517f08c379a0000000000000000000000000000000000000000000000000000000008152600401611a36906144fc565b60405180910390fd5b7f360894a13ba1a3210667c828492db98dca3e2076cc3735a920a3ca505d382bbc60001b8114611aa4576040517f08c379a0000000000000000000000000000000000000000000000000000000008152600401611a9b9061458e565b60405180910390fd5b50611ab083838361247d565b5b505050565b611abe6124a9565b600060c960006101000a81548160ff0219169083151502179055507f5db9ee0a495bf2e6ff9c91a7834c1ba4fdd244a5e8aa4e537bd38aeae4b073aa611b02611497565b604051611b0f91906136da565b60405180910390a1565b611b2a611b24611497565b82611558565b611b69576040517f08c379a0000000000000000000000000000000000000000000000000000000008152600401611b6090613cf5565b60405180910390fd5b611b72816124f2565b50565b60006067600083815260200190815260200160002060009054906101000a900473ffffffffffffffffffffffffffffffffffffffff169050919050565b600081600001549050919050565b6001816000016000828254019250508190555050565b611bf0828260405180602001604052806000815250612640565b5050565b611bfc611497565b73ffffffffffffffffffffffffffffffffffffffff16611c1a61111f565b73ffffffffffffffffffffffffffffffffffffffff1614611c70576040517f08c379a0000000000000000000000000000000000000000000000000000000008152600401611c67906145fa565b60405180910390fd5b565b600060fb60009054906101000a900473ffffffffffffffffffffffffffffffffffffffff1690508160fb60006101000a81548173ffffffffffffffffffffffffffffffffffffffff021916908373ffffffffffffffffffffffffffffffffffffffff1602179055508173ffffffffffffffffffffffffffffffffffffffff168173ffffffffffffffffffffffffffffffffffffffff167f8be0079c531659141344cd1fd0a4f28419497f9722a3daafe3b4186f6b6457e060405160405180910390a35050565b6000808273ffffffffffffffffffffffffffffffffffffffff163b119050919050565b600060019054906101000a900460ff16611daa576040517f08c379a0000000000000000000000000000000000000000000000000000000008152600401611da19061468c565b60405180910390fd5b611db4828261269b565b5050565b600060019054906101000a900460ff16611e07576040517f08c379a0000000000000000000000000000000000000000000000000000000008152600401611dfe9061468c565b60405180910390fd5b565b600060019054906101000a900460ff16611e58576040517f08c379a0000000000000000000000000000000000000000000000000000000008152600401611e4f9061468c565b60405180910390fd5b611e6061270e565b565b600060019054906101000a900460ff16611eb1576040517f08c379a0000000000000000000000000000000000000000000000000000000008152600401611ea89061468c565b60405180910390fd5b611eb961277a565b565b600060019054906101000a900460ff16611f0a576040517f08c379a0000000000000000000000000000000000000000000000000000000008152600401611f019061468c565b60405180910390fd5b565b600060019054906101000a900460ff16611f5b576040517f08c379a0000000000000000000000000000000000000000000000000000000008152600401611f529061468c565b60405180910390fd5b565b611f656127db565b600160c960006101000a81548160ff0219169083151502179055507f62e78cea01bee320cd4e420270b5ea74000d11b0c9f74754ebdbfc544b05a258611fa9611497565b604051611fb691906136da565b60405180910390a1565b8173ffffffffffffffffffffffffffffffffffffffff168373ffffffffffffffffffffffffffffffffffffffff160361202e576040517f08c379a0000000000000000000000000000000000000000000000000000000008152600401612025906146f8565b60405180910390fd5b80606a60008573ffffffffffffffffffffffffffffffffffffffff1673ffffffffffffffffffffffffffffffffffffffff16815260200190815260200160002060008473ffffffffffffffffffffffffffffffffffffffff1673ffffffffffffffffffffffffffffffffffffffff16815260200190815260200160002060006101000a81548160ff0219169083151502179055508173ffffffffffffffffffffffffffffffffffffffff168373ffffffffffffffffffffffffffffffffffffffff167f17307eab39ab6107e8899845ad3d59bd9653f200f220920489ca2b5937696c318360405161211f9190613569565b60405180910390a3505050565b6121378484846115ed565b61214384848484612825565b612182576040517f08c379a00000000000000000000000000000000000000000000000000000000081526004016121799061478a565b60405180910390fd5b50505050565b606060405180602001604052806000815250905090565b6060600060016121ae846129ac565b01905060008167ffffffffffffffff8111156121cd576121cc613815565b5b6040519080825280601f01601f1916602001820160405280156121ff5781602001600182028036833780820191505090505b509050600082602001820190505b600115612262578080600190039150507f3031323334353637383961626364656600000000000000000000000000000000600a86061a8153600a8581612256576122556147aa565b5b0494506000850361220d575b819350505050919050565b60007f80ac58cd000000000000000000000000000000000000000000000000000000007bffffffffffffffffffffffffffffffffffffffffffffffffffffffff1916827bffffffffffffffffffffffffffffffffffffffffffffffffffffffff1916148061233857507f5b5e139f000000000000000000000000000000000000000000000000000000007bffffffffffffffffffffffffffffffffffffffffffffffffffffffff1916827bffffffffffffffffffffffffffffffffffffffffffffffffffffffff1916145b80612348575061234782612aff565b5b9050919050565b60008073ffffffffffffffffffffffffffffffffffffffff1661237183611b75565b73ffffffffffffffffffffffffffffffffffffffff1614159050919050565b6123986127db565b6123a484848484612b69565b50505050565b50505050565b6000819050919050565b6000819050919050565b6123cd81611d38565b61240c576040517f08c379a00000000000000000000000000000000000000000000000000000000081526004016124039061484b565b60405180910390fd5b806124397f360894a13ba1a3210667c828492db98dca3e2076cc3735a920a3ca505d382bbc60001b6123b0565b60000160006101000a81548173ffffffffffffffffffffffffffffffffffffffff021916908373ffffffffffffffffffffffffffffffffffffffff16021790555050565b61248683612cc7565b6000825111806124935750805b156124a4576124a28383612d16565b505b505050565b6124b1610db4565b6124f0576040517f08c379a00000000000000000000000000000000000000000000000000000000081526004016124e7906148b7565b60405180910390fd5b565b60006124fd82610dcb565b905061250d816000846001612390565b61251682610dcb565b90506069600083815260200190815260200160002060006101000a81549073ffffffffffffffffffffffffffffffffffffffff02191690556001606860008373ffffffffffffffffffffffffffffffffffffffff1673ffffffffffffffffffffffffffffffffffffffff168152602001908152602001600020600082825403925050819055506067600083815260200190815260200160002060006101000a81549073ffffffffffffffffffffffffffffffffffffffff021916905581600073ffffffffffffffffffffffffffffffffffffffff168273ffffffffffffffffffffffffffffffffffffffff167fddf252ad1be2c89b69c2b068fc378daa952ba7f163c4a11628f55a4df523b3ef60405160405180910390a461263c8160008460016123aa565b5050565b61264a8383612dfa565b6126576000848484612825565b612696576040517f08c379a000000000000000000000000000000000000000000000000000000000815260040161268d9061478a565b60405180910390fd5b505050565b600060019054906101000a900460ff166126ea576040517f08c379a00000000000000000000000000000000000000000000000000000000081526004016126e19061468c565b60405180910390fd5b81606590816126f99190614a79565b5080606690816127099190614a79565b505050565b600060019054906101000a900460ff1661275d576040517f08c379a00000000000000000000000000000000000000000000000000000000081526004016127549061468c565b60405180910390fd5b600060c960006101000a81548160ff021916908315150217905550565b600060019054906101000a900460ff166127c9576040517f08c379a00000000000000000000000000000000000000000000000000000000081526004016127c09061468c565b60405180910390fd5b6127d96127d4611497565b611c72565b565b6127e3610db4565b15612823576040517f08c379a000000000000000000000000000000000000000000000000000000000815260040161281a90614b97565b60405180910390fd5b565b60006128468473ffffffffffffffffffffffffffffffffffffffff16611d38565b1561299f578373ffffffffffffffffffffffffffffffffffffffff1663150b7a0261286f611497565b8786866040518563ffffffff1660e01b81526004016128919493929190614c0c565b6020604051808303816000875af19250505080156128cd57506040513d601f19601f820116820180604052508101906128ca9190614c6d565b60015b61294f573d80600081146128fd576040519150601f19603f3d011682016040523d82523d6000602084013e612902565b606091505b506000815103612947576040517f08c379a000000000000000000000000000000000000000000000000000000000815260040161293e9061478a565b60405180910390fd5b805181602001fd5b63150b7a0260e01b7bffffffffffffffffffffffffffffffffffffffffffffffffffffffff1916817bffffffffffffffffffffffffffffffffffffffffffffffffffffffff1916149150506129a4565b600190505b949350505050565b600080600090507a184f03e93ff9f4daa797ed6e38ed64bf6a1f0100000000000000008310612a0a577a184f03e93ff9f4daa797ed6e38ed64bf6a1f0100000000000000008381612a00576129ff6147aa565b5b0492506040810190505b6d04ee2d6d415b85acef81000000008310612a47576d04ee2d6d415b85acef81000000008381612a3d57612a3c6147aa565b5b0492506020810190505b662386f26fc100008310612a7657662386f26fc100008381612a6c57612a6b6147aa565b5b0492506010810190505b6305f5e1008310612a9f576305f5e1008381612a9557612a946147aa565b5b0492506008810190505b6127108310612ac4576127108381612aba57612ab96147aa565b5b0492506004810190505b60648310612ae75760648381612add57612adc6147aa565b5b0492506002810190505b600a8310612af6576001810190505b80915050919050565b60007f01ffc9a7000000000000000000000000000000000000000000000000000000007bffffffffffffffffffffffffffffffffffffffffffffffffffffffff1916827bffffffffffffffffffffffffffffffffffffffffffffffffffffffff1916149050919050565b612b7584848484613017565b6001811115612bb9576040517f08c379a0000000000000000000000000000000000000000000000000000000008152600401612bb090614d0c565b60405180910390fd5b6000829050600073ffffffffffffffffffffffffffffffffffffffff168573ffffffffffffffffffffffffffffffffffffffff1603612c0057612bfb8161313d565b612c3f565b8373ffffffffffffffffffffffffffffffffffffffff168573ffffffffffffffffffffffffffffffffffffffff1614612c3e57612c3d8582613186565b5b5b600073ffffffffffffffffffffffffffffffffffffffff168473ffffffffffffffffffffffffffffffffffffffff1603612c8157612c7c816132f3565b612cc0565b8473ffffffffffffffffffffffffffffffffffffffff168473ffffffffffffffffffffffffffffffffffffffff1614612cbf57612cbe84826133c4565b5b5b5050505050565b612cd0816123c4565b8073ffffffffffffffffffffffffffffffffffffffff167fbc7cd75a20ee27fd9adebab32041f755214dbc6bffa90cc0225b39da2e5c2d3b60405160405180910390a250565b6060612d2183611d38565b612d60576040517f08c379a0000000000000000000000000000000000000000000000000000000008152600401612d5790614d9e565b60405180910390fd5b6000808473ffffffffffffffffffffffffffffffffffffffff1684604051612d889190614dfa565b600060405180830381855af49150503d8060008114612dc3576040519150601f19603f3d011682016040523d82523d6000602084013e612dc8565b606091505b5091509150612df08282604051806060016040528060278152602001614fb060279139613443565b9250505092915050565b600073ffffffffffffffffffffffffffffffffffffffff168273ffffffffffffffffffffffffffffffffffffffff1603612e69576040517f08c379a0000000000000000000000000000000000000000000000000000000008152600401612e6090614e5d565b60405180910390fd5b612e728161234f565b15612eb2576040517f08c379a0000000000000000000000000000000000000000000000000000000008152600401612ea990614ec9565b60405180910390fd5b612ec0600083836001612390565b612ec98161234f565b15612f09576040517f08c379a0000000000000000000000000000000000000000000000000000000008152600401612f0090614ec9565b60405180910390fd5b6001606860008473ffffffffffffffffffffffffffffffffffffffff1673ffffffffffffffffffffffffffffffffffffffff16815260200190815260200160002060008282540192505081905550816067600083815260200190815260200160002060006101000a81548173ffffffffffffffffffffffffffffffffffffffff021916908373ffffffffffffffffffffffffffffffffffffffff160217905550808273ffffffffffffffffffffffffffffffffffffffff16600073ffffffffffffffffffffffffffffffffffffffff167fddf252ad1be2c89b69c2b068fc378daa952ba7f163c4a11628f55a4df523b3ef60405160405180910390a46130136000838360016123aa565b5050565b600181111561313757600073ffffffffffffffffffffffffffffffffffffffff168473ffffffffffffffffffffffffffffffffffffffff16146130ab5780606860008673ffffffffffffffffffffffffffffffffffffffff1673ffffffffffffffffffffffffffffffffffffffff16815260200190815260200160002060008282546130a39190614f18565b925050819055505b600073ffffffffffffffffffffffffffffffffffffffff168373ffffffffffffffffffffffffffffffffffffffff16146131365780606860008573ffffffffffffffffffffffffffffffffffffffff1673ffffffffffffffffffffffffffffffffffffffff168152602001908152602001600020600082825461312e9190614f4c565b925050819055505b5b50505050565b609980549050609a600083815260200190815260200160002081905550609981908060018154018082558091505060019003906000526020600020016000909190919091505550565b6000600161319384610e78565b61319d9190614f18565b9050600060986000848152602001908152602001600020549050818114613282576000609760008673ffffffffffffffffffffffffffffffffffffffff1673ffffffffffffffffffffffffffffffffffffffff168152602001908152602001600020600084815260200190815260200160002054905080609760008773ffffffffffffffffffffffffffffffffffffffff1673ffffffffffffffffffffffffffffffffffffffff168152602001908152602001600020600084815260200190815260200160002081905550816098600083815260200190815260200160002081905550505b6098600084815260200190815260200160002060009055609760008573ffffffffffffffffffffffffffffffffffffffff1673ffffffffffffffffffffffffffffffffffffffff16815260200190815260200160002060008381526020019081526020016000206000905550505050565b600060016099805490506133079190614f18565b90506000609a600084815260200190815260200160002054905060006099838154811061333757613336613f5d565b5b90600052602060002001549050806099838154811061335957613358613f5d565b5b906000526020600020018190555081609a600083815260200190815260200160002081905550609a60008581526020019081526020016000206000905560998054806133a8576133a7614f80565b5b6001900381819060005260206000200160009055905550505050565b60006133cf83610e78565b905081609760008573ffffffffffffffffffffffffffffffffffffffff1673ffffffffffffffffffffffffffffffffffffffff168152602001908152602001600020600083815260200190815260200160002081905550806098600084815260200190815260200160002081905550505050565b606083156134535782905061345e565b61345d8383613465565b5b9392505050565b6000825111156134785781518083602001fd5b806040517f08c379a00000000000000000000000000000000000000000000000000000000081526004016134ac9190613614565b60405180910390fd5b6000604051905090565b600080fd5b600080fd5b60007fffffffff0000000000000000000000000000000000000000000000000000000082169050919050565b6134fe816134c9565b811461350957600080fd5b50565b60008135905061351b816134f5565b92915050565b600060208284031215613537576135366134bf565b5b60006135458482850161350c565b91505092915050565b60008115159050919050565b6135638161354e565b82525050565b600060208201905061357e600083018461355a565b92915050565b600081519050919050565b600082825260208201905092915050565b60005b838110156135be5780820151818401526020810190506135a3565b60008484015250505050565b6000601f19601f8301169050919050565b60006135e682613584565b6135f0818561358f565b93506136008185602086016135a0565b613609816135ca565b840191505092915050565b6000602082019050818103600083015261362e81846135db565b905092915050565b6000819050919050565b61364981613636565b811461365457600080fd5b50565b60008135905061366681613640565b92915050565b600060208284031215613682576136816134bf565b5b600061369084828501613657565b91505092915050565b600073ffffffffffffffffffffffffffffffffffffffff82169050919050565b60006136c482613699565b9050919050565b6136d4816136b9565b82525050565b60006020820190506136ef60008301846136cb565b92915050565b6136fe816136b9565b811461370957600080fd5b50565b60008135905061371b816136f5565b92915050565b60008060408385031215613738576137376134bf565b5b60006137468582860161370c565b925050602061375785828601613657565b9150509250929050565b61376a81613636565b82525050565b60006020820190506137856000830184613761565b92915050565b6000806000606084860312156137a4576137a36134bf565b5b60006137b28682870161370c565b93505060206137c38682870161370c565b92505060406137d486828701613657565b9150509250925092565b6000602082840312156137f4576137f36134bf565b5b60006138028482850161370c565b91505092915050565b600080fd5b600080fd5b7f4e487b7100000000000000000000000000000000000000000000000000000000600052604160045260246000fd5b61384d826135ca565b810181811067ffffffffffffffff8211171561386c5761386b613815565b5b80604052505050565b600061387f6134b5565b905061388b8282613844565b919050565b600067ffffffffffffffff8211156138ab576138aa613815565b5b6138b4826135ca565b9050602081019050919050565b82818337600083830152505050565b60006138e36138de84613890565b613875565b9050828152602081018484840111156138ff576138fe613810565b5b61390a8482856138c1565b509392505050565b600082601f8301126139275761392661380b565b5b81356139378482602086016138d0565b91505092915050565b60008060408385031215613957576139566134bf565b5b60006139658582860161370c565b925050602083013567ffffffffffffffff811115613986576139856134c4565b5b61399285828601613912565b9150509250929050565b6000819050919050565b6139af8161399c565b82525050565b60006020820190506139ca60008301846139a6565b92915050565b6139d98161354e565b81146139e457600080fd5b50565b6000813590506139f6816139d0565b92915050565b60008060408385031215613a1357613a126134bf565b5b6000613a218582860161370c565b9250506020613a32858286016139e7565b9150509250929050565b60008060008060808587031215613a5657613a556134bf565b5b6000613a648782880161370c565b9450506020613a758782880161370c565b9350506040613a8687828801613657565b925050606085013567ffffffffffffffff811115613aa757613aa66134c4565b5b613ab387828801613912565b91505092959194509250565b60008060408385031215613ad657613ad56134bf565b5b6000613ae48582860161370c565b9250506020613af58582860161370c565b9150509250929050565b7f4e487b7100000000000000000000000000000000000000000000000000000000600052602260045260246000fd5b60006002820490506001821680613b4657607f821691505b602082108103613b5957613b58613aff565b5b50919050565b7f4552433732313a20617070726f76616c20746f2063757272656e74206f776e6560008201527f7200000000000000000000000000000000000000000000000000000000000000602082015250565b6000613bbb60218361358f565b9150613bc682613b5f565b604082019050919050565b60006020820190508181036000830152613bea81613bae565b9050919050565b7f4552433732313a20617070726f76652063616c6c6572206973206e6f7420746f60008201527f6b656e206f776e6572206f7220617070726f76656420666f7220616c6c000000602082015250565b6000613c4d603d8361358f565b9150613c5882613bf1565b604082019050919050565b60006020820190508181036000830152613c7c81613c40565b9050919050565b7f4552433732313a2063616c6c6572206973206e6f7420746f6b656e206f776e6560008201527f72206f7220617070726f76656400000000000000000000000000000000000000602082015250565b6000613cdf602d8361358f565b9150613cea82613c83565b604082019050919050565b60006020820190508181036000830152613d0e81613cd2565b9050919050565b7f455243373231456e756d657261626c653a206f776e657220696e646578206f7560008201527f74206f6620626f756e6473000000000000000000000000000000000000000000602082015250565b6000613d71602b8361358f565b9150613d7c82613d15565b604082019050919050565b60006020820190508181036000830152613da081613d64565b9050919050565b7f46756e6374696f6e206d7573742062652063616c6c6564207468726f7567682060008201527f64656c656761746563616c6c0000000000000000000000000000000000000000602082015250565b6000613e03602c8361358f565b9150613e0e82613da7565b604082019050919050565b60006020820190508181036000830152613e3281613df6565b9050919050565b7f46756e6374696f6e206d7573742062652063616c6c6564207468726f7567682060008201527f6163746976652070726f78790000000000000000000000000000000000000000602082015250565b6000613e95602c8361358f565b9150613ea082613e39565b604082019050919050565b60006020820190508181036000830152613ec481613e88565b9050919050565b7f455243373231456e756d657261626c653a20676c6f62616c20696e646578206f60008201527f7574206f6620626f756e64730000000000000000000000000000000000000000602082015250565b6000613f27602c8361358f565b9150613f3282613ecb565b604082019050919050565b60006020820190508181036000830152613f5681613f1a565b9050919050565b7f4e487b7100000000000000000000000000000000000000000000000000000000600052603260045260246000fd5b7f555550535570677261646561626c653a206d757374206e6f742062652063616c60008201527f6c6564207468726f7567682064656c656761746563616c6c0000000000000000602082015250565b6000613fe860388361358f565b9150613ff382613f8c565b604082019050919050565b6000602082019050818103600083015261401781613fdb565b9050919050565b7f4552433732313a20696e76616c696420746f6b656e2049440000000000000000600082015250565b600061405460188361358f565b915061405f8261401e565b602082019050919050565b6000602082019050818103600083015261408381614047565b9050919050565b7f4552433732313a2061646472657373207a65726f206973206e6f74206120766160008201527f6c6964206f776e65720000000000000000000000000000000000000000000000602082015250565b60006140e660298361358f565b91506140f18261408a565b604082019050919050565b60006020820190508181036000830152614115816140d9565b9050919050565b7f496e697469616c697a61626c653a20636f6e747261637420697320616c72656160008201527f647920696e697469616c697a6564000000000000000000000000000000000000602082015250565b6000614178602e8361358f565b91506141838261411c565b604082019050919050565b600060208201905081810360008301526141a78161416b565b9050919050565b6000819050919050565b600060ff82169050919050565b6000819050919050565b60006141ea6141e56141e0846141ae565b6141c5565b6141b8565b9050919050565b6141fa816141cf565b82525050565b600060208201905061421560008301846141f1565b92915050565b600081905092915050565b600061423182613584565b61423b818561421b565b935061424b8185602086016135a0565b80840191505092915050565b60006142638285614226565b915061426f8284614226565b91508190509392505050565b7f4f776e61626c653a206e6577206f776e657220697320746865207a65726f206160008201527f6464726573730000000000000000000000000000000000000000000000000000602082015250565b60006142d760268361358f565b91506142e28261427b565b604082019050919050565b60006020820190508181036000830152614306816142ca565b9050919050565b7f4552433732313a207472616e736665722066726f6d20696e636f72726563742060008201527f6f776e6572000000000000000000000000000000000000000000000000000000602082015250565b600061436960258361358f565b91506143748261430d565b604082019050919050565b600060208201905081810360008301526143988161435c565b9050919050565b7f4552433732313a207472616e7366657220746f20746865207a65726f2061646460008201527f7265737300000000000000000000000000000000000000000000000000000000602082015250565b60006143fb60248361358f565b91506144068261439f565b604082019050919050565b6000602082019050818103600083015261442a816143ee565b9050919050565b61443a8161399c565b811461444557600080fd5b50565b60008151905061445781614431565b92915050565b600060208284031215614473576144726134bf565b5b600061448184828501614448565b91505092915050565b7f45524331393637557067726164653a206e657720696d706c656d656e7461746960008201527f6f6e206973206e6f742055555053000000000000000000000000000000000000602082015250565b60006144e6602e8361358f565b91506144f18261448a565b604082019050919050565b60006020820190508181036000830152614515816144d9565b9050919050565b7f45524331393637557067726164653a20756e737570706f727465642070726f7860008201527f6961626c65555549440000000000000000000000000000000000000000000000602082015250565b600061457860298361358f565b91506145838261451c565b604082019050919050565b600060208201905081810360008301526145a78161456b565b9050919050565b7f4f776e61626c653a2063616c6c6572206973206e6f7420746865206f776e6572600082015250565b60006145e460208361358f565b91506145ef826145ae565b602082019050919050565b60006020820190508181036000830152614613816145d7565b9050919050565b7f496e697469616c697a61626c653a20636f6e7472616374206973206e6f74206960008201527f6e697469616c697a696e67000000000000000000000000000000000000000000602082015250565b6000614676602b8361358f565b91506146818261461a565b604082019050919050565b600060208201905081810360008301526146a581614669565b9050919050565b7f4552433732313a20617070726f766520746f2063616c6c657200000000000000600082015250565b60006146e260198361358f565b91506146ed826146ac565b602082019050919050565b60006020820190508181036000830152614711816146d5565b9050919050565b7f4552433732313a207472616e7366657220746f206e6f6e20455243373231526560008201527f63656976657220696d706c656d656e7465720000000000000000000000000000602082015250565b600061477460328361358f565b915061477f82614718565b604082019050919050565b600060208201905081810360008301526147a381614767565b9050919050565b7f4e487b7100000000000000000000000000000000000000000000000000000000600052601260045260246000fd5b7f455243313936373a206e657720696d706c656d656e746174696f6e206973206e60008201527f6f74206120636f6e747261637400000000000000000000000000000000000000602082015250565b6000614835602d8361358f565b9150614840826147d9565b604082019050919050565b6000602082019050818103600083015261486481614828565b9050919050565b7f5061757361626c653a206e6f7420706175736564000000000000000000000000600082015250565b60006148a160148361358f565b91506148ac8261486b565b602082019050919050565b600060208201905081810360008301526148d081614894565b9050919050565b60008190508160005260206000209050919050565b60006020601f8301049050919050565b600082821b905092915050565b6000600883026149397fffffffffffffffffffffffffffffffffffffffffffffffffffffffffffffffff826148fc565b61494386836148fc565b95508019841693508086168417925050509392505050565b600061497661497161496c84613636565b6141c5565b613636565b9050919050565b6000819050919050565b6149908361495b565b6149a461499c8261497d565b848454614909565b825550505050565b600090565b6149b96149ac565b6149c4818484614987565b505050565b5b818110156149e8576149dd6000826149b1565b6001810190506149ca565b5050565b601f821115614a2d576149fe816148d7565b614a07846148ec565b81016020851015614a16578190505b614a2a614a22856148ec565b8301826149c9565b50505b505050565b600082821c905092915050565b6000614a5060001984600802614a32565b1980831691505092915050565b6000614a698383614a3f565b9150826002028217905092915050565b614a8282613584565b67ffffffffffffffff811115614a9b57614a9a613815565b5b614aa58254613b2e565b614ab08282856149ec565b600060209050601f831160018114614ae35760008415614ad1578287015190505b614adb8582614a5d565b865550614b43565b601f198416614af1866148d7565b60005b82811015614b1957848901518255600182019150602085019450602081019050614af4565b86831015614b365784890151614b32601f891682614a3f565b8355505b6001600288020188555050505b505050505050565b7f5061757361626c653a2070617573656400000000000000000000000000000000600082015250565b6000614b8160108361358f565b9150614b8c82614b4b565b602082019050919050565b60006020820190508181036000830152614bb081614b74565b9050919050565b600081519050919050565b600082825260208201905092915050565b6000614bde82614bb7565b614be88185614bc2565b9350614bf88185602086016135a0565b614c01816135ca565b840191505092915050565b6000608082019050614c2160008301876136cb565b614c2e60208301866136cb565b614c3b6040830185613761565b8181036060830152614c4d8184614bd3565b905095945050505050565b600081519050614c67816134f5565b92915050565b600060208284031215614c8357614c826134bf565b5b6000614c9184828501614c58565b91505092915050565b7f455243373231456e756d657261626c653a20636f6e736563757469766520747260008201527f616e7366657273206e6f7420737570706f727465640000000000000000000000602082015250565b6000614cf660358361358f565b9150614d0182614c9a565b604082019050919050565b60006020820190508181036000830152614d2581614ce9565b9050919050565b7f416464726573733a2064656c65676174652063616c6c20746f206e6f6e2d636f60008201527f6e74726163740000000000000000000000000000000000000000000000000000602082015250565b6000614d8860268361358f565b9150614d9382614d2c565b604082019050919050565b60006020820190508181036000830152614db781614d7b565b9050919050565b600081905092915050565b6000614dd482614bb7565b614dde8185614dbe565b9350614dee8185602086016135a0565b80840191505092915050565b6000614e068284614dc9565b915081905092915050565b7f4552433732313a206d696e7420746f20746865207a65726f2061646472657373600082015250565b6000614e4760208361358f565b9150614e5282614e11565b602082019050919050565b60006020820190508181036000830152614e7681614e3a565b9050919050565b7f4552433732313a20746f6b656e20616c7265616479206d696e74656400000000600082015250565b6000614eb3601c8361358f565b9150614ebe82614e7d565b602082019050919050565b60006020820190508181036000830152614ee281614ea6565b9050919050565b7f4e487b7100000000000000000000000000000000000000000000000000000000600052601160045260246000fd5b6000614f2382613636565b9150614f2e83613636565b9250828203905081811115614f4657614f45614ee9565b5b92915050565b6000614f5782613636565b9150614f6283613636565b9250828201905080821115614f7a57614f79614ee9565b5b92915050565b7f4e487b7100000000000000000000000000000000000000000000000000000000600052603160045260246000fdfe416464726573733a206c6f772d6c6576656c2064656c65676174652063616c6c206661696c6564a26469706673582212205a478337fae5104b225c85b57cfe959bf40a87d31396256b8e77673cec9cbebc64736f6c63430008110033",
  "linkReferences": {},
  "deployedLinkReferences": {}
}