{
  "_format": "hh-sol-artifact-1",
  "contractName": "ChiosERC20",
  "sourceName": "contracts/ChiosERC20.sol",
  "abi": [
    {
      "inputs": [],
      "stateMutability": "nonpayable",
      "type": "constructor"
    },
    {
      "anonymous": false,
      "inputs": [
        {
          "indexed": false,
          "internalType": "address",
          "name": "previousAdmin",
          "type": "address"
        },
        {
          "indexed": false,
          "internalType": "address",
          "name": "newAdmin",
          "type": "address"
        }
      ],
      "name": "AdminChanged",
      "type": "event"
    },
    {
      "anonymous": false,
      "inputs": [
        {
          "indexed": true,
          "internalType": "address",
          "name": "owner",
          "type": "address"
        },
        {
          "indexed": true,
          "internalType": "address",
          "name": "spender",
          "type": "address"
        },
        {
          "indexed": false,
          "internalType": "uint256",
          "name": "value",
          "type": "uint256"
        }
      ],
      "name": "Approval",
      "type": "event"
    },
    {
      "anonymous": false,
      "inputs": [
        {
          "indexed": true,
          "internalType": "address",
          "name": "beacon",
          "type": "address"
        }
      ],
      "name": "BeaconUpgraded",
      "type": "event"
    },
    {
      "anonymous": false,
      "inputs": [
        {
          "indexed": false,
          "internalType": "uint8",
          "name": "version",
          "type": "uint8"
        }
      ],
      "name": "Initialized",
      "type": "event"
    },
    {
      "anonymous": false,
      "inputs": [
        {
          "indexed": true,
          "internalType": "address",
          "name": "previousOwner",
          "type": "address"
        },
        {
          "indexed": true,
          "internalType": "address",
          "name": "newOwner",
          "type": "address"
        }
      ],
      "name": "OwnershipTransferred",
      "type": "event"
    },
    {
      "anonymous": false,
      "inputs": [
        {
          "indexed": true,
          "internalType": "address",
          "name": "from",
          "type": "address"
        },
        {
          "indexed": true,
          "internalType": "address",
          "name": "to",
          "type": "address"
        },
        {
          "indexed": false,
          "internalType": "uint256",
          "name": "value",
          "type": "uint256"
        }
      ],
      "name": "Transfer",
      "type": "event"
    },
    {
      "anonymous": false,
      "inputs": [
        {
          "indexed": true,
          "internalType": "address",
          "name": "implementation",
          "type": "address"
        }
      ],
      "name": "Upgraded",
      "type": "event"
    },
    {
      "inputs": [
        {
          "internalType": "address",
          "name": "owner",
          "type": "address"
        },
        {
          "internalType": "address",
          "name": "spender",
          "type": "address"
        }
      ],
      "name": "allowance",
      "outputs": [
        {
          "internalType": "uint256",
          "name": "",
          "type": "uint256"
        }
      ],
      "stateMutability": "view",
      "type": "function"
    },
    {
      "inputs": [
        {
          "internalType": "address",
          "name": "spender",
          "type": "address"
        },
        {
          "internalType": "uint256",
          "name": "amount",
          "type": "uint256"
        }
      ],
      "name": "approve",
      "outputs": [
        {
          "internalType": "bool",
          "name": "",
          "type": "bool"
        }
      ],
      "stateMutability": "nonpayable",
      "type": "function"
    },
    {
      "inputs": [
        {
          "internalType": "address",
          "name": "account",
          "type": "address"
        }
      ],
      "name": "balanceOf",
      "outputs": [
        {
          "internalType": "uint256",
          "name": "",
          "type": "uint256"
        }
      ],
      "stateMutability": "view",
      "type": "function"
    },
    {
      "inputs": [
        {
          "internalType": "uint256",
          "name": "amount",
          "type": "uint256"
        }
      ],
      "name": "burn",
      "outputs": [],
      "stateMutability": "nonpayable",
      "type": "function"
    },
    {
      "inputs": [
        {
          "internalType": "address",
          "name": "account",
          "type": "address"
        },
        {
          "internalType": "uint256",
          "name": "amount",
          "type": "uint256"
        }
      ],
      "name": "burnFrom",
      "outputs": [],
      "stateMutability": "nonpayable",
      "type": "function"
    },
    {
      "inputs": [],
      "name": "decimals",
      "outputs": [
        {
          "internalType": "uint8",
          "name": "",
          "type": "uint8"
        }
      ],
      "stateMutability": "view",
      "type": "function"
    },
    {
      "inputs": [
        {
          "internalType": "address",
          "name": "spender",
          "type": "address"
        },
        {
          "internalType": "uint256",
          "name": "subtractedValue",
          "type": "uint256"
        }
      ],
      "name": "decreaseAllowance",
      "outputs": [
        {
          "internalType": "bool",
          "name": "",
          "type": "bool"
        }
      ],
      "stateMutability": "nonpayable",
      "type": "function"
    },
    {
      "inputs": [
        {
          "internalType": "address",
          "name": "spender",
          "type": "address"
        },
        {
          "internalType": "uint256",
          "name": "addedValue",
          "type": "uint256"
        }
      ],
      "name": "increaseAllowance",
      "outputs": [
        {
          "internalType": "bool",
          "name": "",
          "type": "bool"
        }
      ],
      "stateMutability": "nonpayable",
      "type": "function"
    },
    {
      "inputs": [],
      "name": "initialize",
      "outputs": [],
      "stateMutability": "nonpayable",
      "type": "function"
    },
    {
      "inputs": [
        {
          "internalType": "uint256",
          "name": "amount",
          "type": "uint256"
        }
      ],
      "name": "mint",
      "outputs": [],
      "stateMutability": "nonpayable",
      "type": "function"
    },
    {
      "inputs": [],
      "name": "name",
      "outputs": [
        {
          "internalType": "string",
          "name": "",
          "type": "string"
        }
      ],
      "stateMutability": "view",
      "type": "function"
    },
    {
      "inputs": [],
      "name": "owner",
      "outputs": [
        {
          "internalType": "address",
          "name": "",
          "type": "address"
        }
      ],
      "stateMutability": "view",
      "type": "function"
    },
    {
      "inputs": [],
      "name": "proxiableUUID",
      "outputs": [
        {
          "internalType": "bytes32",
          "name": "",
          "type": "bytes32"
        }
      ],
      "stateMutability": "view",
      "type": "function"
    },
    {
      "inputs": [],
      "name": "renounceOwnership",
      "outputs": [],
      "stateMutability": "nonpayable",
      "type": "function"
    },
    {
      "inputs": [],
      "name": "symbol",
      "outputs": [
        {
          "internalType": "string",
          "name": "",
          "type": "string"
        }
      ],
      "stateMutability": "view",
      "type": "function"
    },
    {
      "inputs": [],
      "name": "totalSupply",
      "outputs": [
        {
          "internalType": "uint256",
          "name": "",
          "type": "uint256"
        }
      ],
      "stateMutability": "view",
      "type": "function"
    },
    {
      "inputs": [
        {
          "internalType": "address",
          "name": "to",
          "type": "address"
        },
        {
          "internalType": "uint256",
          "name": "amount",
          "type": "uint256"
        }
      ],
      "name": "transfer",
      "outputs": [
        {
          "internalType": "bool",
          "name": "",
          "type": "bool"
        }
      ],
      "stateMutability": "nonpayable",
      "type": "function"
    },
    {
      "inputs": [
        {
          "internalType": "address",
          "name": "from",
          "type": "address"
        },
        {
          "internalType": "address",
          "name": "to",
          "type": "address"
        },
        {
          "internalType": "uint256",
          "name": "amount",
          "type": "uint256"
        }
      ],
      "name": "transferFrom",
      "outputs": [
        {
          "internalType": "bool",
          "name": "",
          "type": "bool"
        }
      ],
      "stateMutability": "nonpayable",
      "type": "function"
    },
    {
      "inputs": [
        {
          "internalType": "address",
          "name": "newOwner",
          "type": "address"
        }
      ],
      "name": "transferOwnership",
      "outputs": [],
      "stateMutability": "nonpayable",
      "type": "function"
    },
    {
      "inputs": [
        {
          "internalType": "address",
          "name": "newImplementation",
          "type": "address"
        }
      ],
      "name": "upgradeTo",
      "outputs": [],
      "stateMutability": "nonpayable",
      "type": "function"
    },
    {
      "inputs": [
        {
          "internalType": "address",
          "name": "newImplementation",
          "type": "address"
        },
        {
          "internalType": "bytes",
          "name": "data",
          "type": "bytes"
        }
      ],
      "name": "upgradeToAndCall",
      "outputs": [],
      "stateMutability": "payable",
      "type": "function"
    }
  ],
  "bytecode": "0x60a06040523073ffffffffffffffffffffffffffffffffffffffff1660809073ffffffffffffffffffffffffffffffffffffffff168152503480156200004457600080fd5b50620000556200005b60201b60201c565b62000206565b600060019054906101000a900460ff1615620000ae576040517f08c379a0000000000000000000000000000000000000000000000000000000008152600401620000a590620001a9565b60405180910390fd5b60ff801660008054906101000a900460ff1660ff161015620001205760ff6000806101000a81548160ff021916908360ff1602179055507f7f26b83ff96e1f2b6a682f133852f6798a09c465da95921460cefb384740249860ff604051620001179190620001e9565b60405180910390a15b565b600082825260208201905092915050565b7f496e697469616c697a61626c653a20636f6e747261637420697320696e69746960008201527f616c697a696e6700000000000000000000000000000000000000000000000000602082015250565b60006200019160278362000122565b91506200019e8262000133565b604082019050919050565b60006020820190508181036000830152620001c48162000182565b9050919050565b600060ff82169050919050565b620001e381620001cb565b82525050565b6000602082019050620002006000830184620001d8565b92915050565b60805161355a6200023e600039600081816105ec0152818161067a015281816107b70152818161084501526108f5015261355a6000f3fe60806040526004361061012a5760003560e01c806370a08231116100ab57806395d89b411161006f57806395d89b41146103bf578063a0712d68146103ea578063a457c2d714610413578063a9059cbb14610450578063dd62ed3e1461048d578063f2fde38b146104ca5761012a565b806370a0823114610300578063715018a61461033d57806379cc6790146103545780638129fc1c1461037d5780638da5cb5b146103945761012a565b80633659cfe6116100f25780633659cfe61461022a578063395093511461025357806342966c68146102905780634f1ef286146102b957806352d1902d146102d55761012a565b806306fdde031461012f578063095ea7b31461015a57806318160ddd1461019757806323b872dd146101c2578063313ce567146101ff575b600080fd5b34801561013b57600080fd5b506101446104f3565b6040516101519190611f9c565b60405180910390f35b34801561016657600080fd5b50610181600480360381019061017c9190612066565b610585565b60405161018e91906120c1565b60405180910390f35b3480156101a357600080fd5b506101ac6105a8565b6040516101b991906120eb565b60405180910390f35b3480156101ce57600080fd5b506101e960048036038101906101e49190612106565b6105b2565b6040516101f691906120c1565b60405180910390f35b34801561020b57600080fd5b506102146105e1565b6040516102219190612175565b60405180910390f35b34801561023657600080fd5b50610251600480360381019061024c9190612190565b6105ea565b005b34801561025f57600080fd5b5061027a60048036038101906102759190612066565b610772565b60405161028791906120c1565b60405180910390f35b34801561029c57600080fd5b506102b760048036038101906102b291906121bd565b6107a9565b005b6102d360048036038101906102ce919061231f565b6107b5565b005b3480156102e157600080fd5b506102ea6108f1565b6040516102f79190612394565b60405180910390f35b34801561030c57600080fd5b5061032760048036038101906103229190612190565b6109aa565b60405161033491906120eb565b60405180910390f35b34801561034957600080fd5b506103526109f3565b005b34801561036057600080fd5b5061037b60048036038101906103769190612066565b610a07565b005b34801561038957600080fd5b50610392610a27565b005b3480156103a057600080fd5b506103a9610bf6565b6040516103b691906123be565b60405180910390f35b3480156103cb57600080fd5b506103d4610c20565b6040516103e19190611f9c565b60405180910390f35b3480156103f657600080fd5b50610411600480360381019061040c91906121bd565b610cb2565b005b34801561041f57600080fd5b5061043a60048036038101906104359190612066565b610d0c565b60405161044791906120c1565b60405180910390f35b34801561045c57600080fd5b5061047760048036038101906104729190612066565b610d83565b60405161048491906120c1565b60405180910390f35b34801561049957600080fd5b506104b460048036038101906104af91906123d9565b610dc4565b6040516104c191906120eb565b60405180910390f35b3480156104d657600080fd5b506104f160048036038101906104ec9190612190565b610e4b565b005b60606036805461050290612448565b80601f016020809104026020016040519081016040528092919081815260200182805461052e90612448565b801561057b5780601f106105505761010080835404028352916020019161057b565b820191906000526020600020905b81548152906001019060200180831161055e57829003601f168201915b5050505050905090565b600080610590610ece565b905061059d818585610ed6565b600191505092915050565b6000603554905090565b6000806105bd610ece565b90506105ca85828561109f565b6105d585858561112b565b60019150509392505050565b60006012905090565b7f000000000000000000000000000000000000000000000000000000000000000073ffffffffffffffffffffffffffffffffffffffff163073ffffffffffffffffffffffffffffffffffffffff1603610678576040517f08c379a000000000000000000000000000000000000000000000000000000000815260040161066f906124eb565b60405180910390fd5b7f000000000000000000000000000000000000000000000000000000000000000073ffffffffffffffffffffffffffffffffffffffff166106b76113a4565b73ffffffffffffffffffffffffffffffffffffffff161461070d576040517f08c379a00000000000000000000000000000000000000000000000000000000081526004016107049061257d565b60405180910390fd5b610716816113fb565b61076f81600067ffffffffffffffff811115610735576107346121f4565b5b6040519080825280601f01601f1916602001820160405280156107675781602001600182028036833780820191505090505b506000611406565b50565b60008061077d610ece565b905061079e81858561078f8589610dc4565b61079991906125cc565b610ed6565b600191505092915050565b6107b281611574565b50565b7f000000000000000000000000000000000000000000000000000000000000000073ffffffffffffffffffffffffffffffffffffffff163073ffffffffffffffffffffffffffffffffffffffff1603610843576040517f08c379a000000000000000000000000000000000000000000000000000000000815260040161083a906124eb565b60405180910390fd5b7f000000000000000000000000000000000000000000000000000000000000000073ffffffffffffffffffffffffffffffffffffffff166108826113a4565b73ffffffffffffffffffffffffffffffffffffffff16146108d8576040517f08c379a00000000000000000000000000000000000000000000000000000000081526004016108cf9061257d565b60405180910390fd5b6108e1826113fb565b6108ed82826001611406565b5050565b60007f000000000000000000000000000000000000000000000000000000000000000073ffffffffffffffffffffffffffffffffffffffff163073ffffffffffffffffffffffffffffffffffffffff1614610981576040517f08c379a000000000000000000000000000000000000000000000000000000000815260040161097890612672565b60405180910390fd5b7f360894a13ba1a3210667c828492db98dca3e2076cc3735a920a3ca505d382bbc60001b905090565b6000603360008373ffffffffffffffffffffffffffffffffffffffff1673ffffffffffffffffffffffffffffffffffffffff168152602001908152602001600020549050919050565b6109fb611588565b610a056000611606565b565b610a1982610a13610ece565b8361109f565b610a2382826116cc565b5050565b60008060019054906101000a900460ff16159050808015610a585750600160008054906101000a900460ff1660ff16105b80610a855750610a673061189b565b158015610a845750600160008054906101000a900460ff1660ff16145b5b610ac4576040517f08c379a0000000000000000000000000000000000000000000000000000000008152600401610abb90612704565b60405180910390fd5b60016000806101000a81548160ff021916908360ff1602179055508015610b01576001600060016101000a81548160ff0219169083151502179055505b610b756040518060400160405280600a81526020017f4368696f734552433230000000000000000000000000000000000000000000008152506040518060400160405280600381526020017f43323000000000000000000000000000000000000000000000000000000000008152506118be565b610b7d61191b565b610b8561196c565b610b8d6119c5565b610b9a33620186a0611a16565b8015610bf35760008060016101000a81548160ff0219169083151502179055507f7f26b83ff96e1f2b6a682f133852f6798a09c465da95921460cefb38474024986001604051610bea9190612769565b60405180910390a15b50565b6000609760009054906101000a900473ffffffffffffffffffffffffffffffffffffffff16905090565b606060378054610c2f90612448565b80601f0160208091040260200160405190810160405280929190818152602001828054610c5b90612448565b8015610ca85780601f10610c7d57610100808354040283529160200191610ca8565b820191906000526020600020905b815481529060010190602001808311610c8b57829003601f168201915b5050505050905090565b620f4240610cbe6105a8565b1115610cff576040517f08c379a0000000000000000000000000000000000000000000000000000000008152600401610cf6906127d0565b60405180910390fd5b610d093382611a16565b50565b600080610d17610ece565b90506000610d258286610dc4565b905083811015610d6a576040517f08c379a0000000000000000000000000000000000000000000000000000000008152600401610d6190612862565b60405180910390fd5b610d778286868403610ed6565b60019250505092915050565b6000610d9a600a83610d9591906128b1565b6107a9565b610dbc83600a600985610dad91906128e2565b610db791906128b1565b611b6d565b905092915050565b6000603460008473ffffffffffffffffffffffffffffffffffffffff1673ffffffffffffffffffffffffffffffffffffffff16815260200190815260200160002060008373ffffffffffffffffffffffffffffffffffffffff1673ffffffffffffffffffffffffffffffffffffffff16815260200190815260200160002054905092915050565b610e53611588565b600073ffffffffffffffffffffffffffffffffffffffff168173ffffffffffffffffffffffffffffffffffffffff1603610ec2576040517f08c379a0000000000000000000000000000000000000000000000000000000008152600401610eb990612996565b60405180910390fd5b610ecb81611606565b50565b600033905090565b600073ffffffffffffffffffffffffffffffffffffffff168373ffffffffffffffffffffffffffffffffffffffff1603610f45576040517f08c379a0000000000000000000000000000000000000000000000000000000008152600401610f3c90612a28565b60405180910390fd5b600073ffffffffffffffffffffffffffffffffffffffff168273ffffffffffffffffffffffffffffffffffffffff1603610fb4576040517f08c379a0000000000000000000000000000000000000000000000000000000008152600401610fab90612aba565b60405180910390fd5b80603460008573ffffffffffffffffffffffffffffffffffffffff1673ffffffffffffffffffffffffffffffffffffffff16815260200190815260200160002060008473ffffffffffffffffffffffffffffffffffffffff1673ffffffffffffffffffffffffffffffffffffffff168152602001908152602001600020819055508173ffffffffffffffffffffffffffffffffffffffff168373ffffffffffffffffffffffffffffffffffffffff167f8c5be1e5ebec7d5bd14f71427d1e84f3dd0314c0f7b2291e5b200ac8c7c3b9258360405161109291906120eb565b60405180910390a3505050565b60006110ab8484610dc4565b90507fffffffffffffffffffffffffffffffffffffffffffffffffffffffffffffffff81146111255781811015611117576040517f08c379a000000000000000000000000000000000000000000000000000000000815260040161110e90612b26565b60405180910390fd5b6111248484848403610ed6565b5b50505050565b600073ffffffffffffffffffffffffffffffffffffffff168373ffffffffffffffffffffffffffffffffffffffff160361119a576040517f08c379a000000000000000000000000000000000000000000000000000000000815260040161119190612bb8565b60405180910390fd5b600073ffffffffffffffffffffffffffffffffffffffff168273ffffffffffffffffffffffffffffffffffffffff1603611209576040517f08c379a000000000000000000000000000000000000000000000000000000000815260040161120090612c4a565b60405180910390fd5b611214838383611b90565b6000603360008573ffffffffffffffffffffffffffffffffffffffff1673ffffffffffffffffffffffffffffffffffffffff1681526020019081526020016000205490508181101561129b576040517f08c379a000000000000000000000000000000000000000000000000000000000815260040161129290612cdc565b60405180910390fd5b818103603360008673ffffffffffffffffffffffffffffffffffffffff1673ffffffffffffffffffffffffffffffffffffffff1681526020019081526020016000208190555081603360008573ffffffffffffffffffffffffffffffffffffffff1673ffffffffffffffffffffffffffffffffffffffff168152602001908152602001600020600082825401925050819055508273ffffffffffffffffffffffffffffffffffffffff168473ffffffffffffffffffffffffffffffffffffffff167fddf252ad1be2c89b69c2b068fc378daa952ba7f163c4a11628f55a4df523b3ef8460405161138b91906120eb565b60405180910390a361139e848484611b95565b50505050565b60006113d27f360894a13ba1a3210667c828492db98dca3e2076cc3735a920a3ca505d382bbc60001b611b9a565b60000160009054906101000a900473ffffffffffffffffffffffffffffffffffffffff16905090565b611403611588565b50565b6114327f4910fdfa16fed3260ed0e7147f7cc6da11a60208b5b9406d12a635614ffd914360001b611ba4565b60000160009054906101000a900460ff16156114565761145183611bae565b61156f565b8273ffffffffffffffffffffffffffffffffffffffff166352d1902d6040518163ffffffff1660e01b8152600401602060405180830381865afa9250505080156114be57506040513d601f19601f820116820180604052508101906114bb9190612d28565b60015b6114fd576040517f08c379a00000000000000000000000000000000000000000000000000000000081526004016114f490612dc7565b60405180910390fd5b7f360894a13ba1a3210667c828492db98dca3e2076cc3735a920a3ca505d382bbc60001b8114611562576040517f08c379a000000000000000000000000000000000000000000000000000000000815260040161155990612e59565b60405180910390fd5b5061156e838383611c67565b5b505050565b61158561157f610ece565b826116cc565b50565b611590610ece565b73ffffffffffffffffffffffffffffffffffffffff166115ae610bf6565b73ffffffffffffffffffffffffffffffffffffffff1614611604576040517f08c379a00000000000000000000000000000000000000000000000000000000081526004016115fb90612ec5565b60405180910390fd5b565b6000609760009054906101000a900473ffffffffffffffffffffffffffffffffffffffff16905081609760006101000a81548173ffffffffffffffffffffffffffffffffffffffff021916908373ffffffffffffffffffffffffffffffffffffffff1602179055508173ffffffffffffffffffffffffffffffffffffffff168173ffffffffffffffffffffffffffffffffffffffff167f8be0079c531659141344cd1fd0a4f28419497f9722a3daafe3b4186f6b6457e060405160405180910390a35050565b600073ffffffffffffffffffffffffffffffffffffffff168273ffffffffffffffffffffffffffffffffffffffff160361173b576040517f08c379a000000000000000000000000000000000000000000000000000000000815260040161173290612f57565b60405180910390fd5b61174782600083611b90565b6000603360008473ffffffffffffffffffffffffffffffffffffffff1673ffffffffffffffffffffffffffffffffffffffff168152602001908152602001600020549050818110156117ce576040517f08c379a00000000000000000000000000000000000000000000000000000000081526004016117c590612fe9565b60405180910390fd5b818103603360008573ffffffffffffffffffffffffffffffffffffffff1673ffffffffffffffffffffffffffffffffffffffff1681526020019081526020016000208190555081603560008282540392505081905550600073ffffffffffffffffffffffffffffffffffffffff168373ffffffffffffffffffffffffffffffffffffffff167fddf252ad1be2c89b69c2b068fc378daa952ba7f163c4a11628f55a4df523b3ef8460405161188291906120eb565b60405180910390a361189683600084611b95565b505050565b6000808273ffffffffffffffffffffffffffffffffffffffff163b119050919050565b600060019054906101000a900460ff1661190d576040517f08c379a00000000000000000000000000000000000000000000000000000000081526004016119049061307b565b60405180910390fd5b6119178282611c93565b5050565b600060019054906101000a900460ff1661196a576040517f08c379a00000000000000000000000000000000000000000000000000000000081526004016119619061307b565b60405180910390fd5b565b600060019054906101000a900460ff166119bb576040517f08c379a00000000000000000000000000000000000000000000000000000000081526004016119b29061307b565b60405180910390fd5b6119c3611d06565b565b600060019054906101000a900460ff16611a14576040517f08c379a0000000000000000000000000000000000000000000000000000000008152600401611a0b9061307b565b60405180910390fd5b565b600073ffffffffffffffffffffffffffffffffffffffff168273ffffffffffffffffffffffffffffffffffffffff1603611a85576040517f08c379a0000000000000000000000000000000000000000000000000000000008152600401611a7c906130e7565b60405180910390fd5b611a9160008383611b90565b8060356000828254611aa391906125cc565b9250508190555080603360008473ffffffffffffffffffffffffffffffffffffffff1673ffffffffffffffffffffffffffffffffffffffff168152602001908152602001600020600082825401925050819055508173ffffffffffffffffffffffffffffffffffffffff16600073ffffffffffffffffffffffffffffffffffffffff167fddf252ad1be2c89b69c2b068fc378daa952ba7f163c4a11628f55a4df523b3ef83604051611b5591906120eb565b60405180910390a3611b6960008383611b95565b5050565b600080611b78610ece565b9050611b8581858561112b565b600191505092915050565b505050565b505050565b6000819050919050565b6000819050919050565b611bb78161189b565b611bf6576040517f08c379a0000000000000000000000000000000000000000000000000000000008152600401611bed90613179565b60405180910390fd5b80611c237f360894a13ba1a3210667c828492db98dca3e2076cc3735a920a3ca505d382bbc60001b611b9a565b60000160006101000a81548173ffffffffffffffffffffffffffffffffffffffff021916908373ffffffffffffffffffffffffffffffffffffffff16021790555050565b611c7083611d67565b600082511180611c7d5750805b15611c8e57611c8c8383611db6565b505b505050565b600060019054906101000a900460ff16611ce2576040517f08c379a0000000000000000000000000000000000000000000000000000000008152600401611cd99061307b565b60405180910390fd5b8160369081611cf1919061333b565b508060379081611d01919061333b565b505050565b600060019054906101000a900460ff16611d55576040517f08c379a0000000000000000000000000000000000000000000000000000000008152600401611d4c9061307b565b60405180910390fd5b611d65611d60610ece565b611606565b565b611d7081611bae565b8073ffffffffffffffffffffffffffffffffffffffff167fbc7cd75a20ee27fd9adebab32041f755214dbc6bffa90cc0225b39da2e5c2d3b60405160405180910390a250565b6060611dc18361189b565b611e00576040517f08c379a0000000000000000000000000000000000000000000000000000000008152600401611df79061347f565b60405180910390fd5b6000808473ffffffffffffffffffffffffffffffffffffffff1684604051611e2891906134e6565b600060405180830381855af49150503d8060008114611e63576040519150601f19603f3d011682016040523d82523d6000602084013e611e68565b606091505b5091509150611e9082826040518060600160405280602781526020016134fe60279139611e9a565b9250505092915050565b60608315611eaa57829050611eb5565b611eb48383611ebc565b5b9392505050565b600082511115611ecf5781518083602001fd5b806040517f08c379a0000000000000000000000000000000000000000000000000000000008152600401611f039190611f9c565b60405180910390fd5b600081519050919050565b600082825260208201905092915050565b60005b83811015611f46578082015181840152602081019050611f2b565b60008484015250505050565b6000601f19601f8301169050919050565b6000611f6e82611f0c565b611f788185611f17565b9350611f88818560208601611f28565b611f9181611f52565b840191505092915050565b60006020820190508181036000830152611fb68184611f63565b905092915050565b6000604051905090565b600080fd5b600080fd5b600073ffffffffffffffffffffffffffffffffffffffff82169050919050565b6000611ffd82611fd2565b9050919050565b61200d81611ff2565b811461201857600080fd5b50565b60008135905061202a81612004565b92915050565b6000819050919050565b61204381612030565b811461204e57600080fd5b50565b6000813590506120608161203a565b92915050565b6000806040838503121561207d5761207c611fc8565b5b600061208b8582860161201b565b925050602061209c85828601612051565b9150509250929050565b60008115159050919050565b6120bb816120a6565b82525050565b60006020820190506120d660008301846120b2565b92915050565b6120e581612030565b82525050565b600060208201905061210060008301846120dc565b92915050565b60008060006060848603121561211f5761211e611fc8565b5b600061212d8682870161201b565b935050602061213e8682870161201b565b925050604061214f86828701612051565b9150509250925092565b600060ff82169050919050565b61216f81612159565b82525050565b600060208201905061218a6000830184612166565b92915050565b6000602082840312156121a6576121a5611fc8565b5b60006121b48482850161201b565b91505092915050565b6000602082840312156121d3576121d2611fc8565b5b60006121e184828501612051565b91505092915050565b600080fd5b600080fd5b7f4e487b7100000000000000000000000000000000000000000000000000000000600052604160045260246000fd5b61222c82611f52565b810181811067ffffffffffffffff8211171561224b5761224a6121f4565b5b80604052505050565b600061225e611fbe565b905061226a8282612223565b919050565b600067ffffffffffffffff82111561228a576122896121f4565b5b61229382611f52565b9050602081019050919050565b82818337600083830152505050565b60006122c26122bd8461226f565b612254565b9050828152602081018484840111156122de576122dd6121ef565b5b6122e98482856122a0565b509392505050565b600082601f830112612306576123056121ea565b5b81356123168482602086016122af565b91505092915050565b6000806040838503121561233657612335611fc8565b5b60006123448582860161201b565b925050602083013567ffffffffffffffff81111561236557612364611fcd565b5b612371858286016122f1565b9150509250929050565b6000819050919050565b61238e8161237b565b82525050565b60006020820190506123a96000830184612385565b92915050565b6123b881611ff2565b82525050565b60006020820190506123d360008301846123af565b92915050565b600080604083850312156123f0576123ef611fc8565b5b60006123fe8582860161201b565b925050602061240f8582860161201b565b9150509250929050565b7f4e487b7100000000000000000000000000000000000000000000000000000000600052602260045260246000fd5b6000600282049050600182168061246057607f821691505b60208210810361247357612472612419565b5b50919050565b7f46756e6374696f6e206d7573742062652063616c6c6564207468726f7567682060008201527f64656c656761746563616c6c0000000000000000000000000000000000000000602082015250565b60006124d5602c83611f17565b91506124e082612479565b604082019050919050565b60006020820190508181036000830152612504816124c8565b9050919050565b7f46756e6374696f6e206d7573742062652063616c6c6564207468726f7567682060008201527f6163746976652070726f78790000000000000000000000000000000000000000602082015250565b6000612567602c83611f17565b91506125728261250b565b604082019050919050565b600060208201905081810360008301526125968161255a565b9050919050565b7f4e487b7100000000000000000000000000000000000000000000000000000000600052601160045260246000fd5b60006125d782612030565b91506125e283612030565b92508282019050808211156125fa576125f961259d565b5b92915050565b7f555550535570677261646561626c653a206d757374206e6f742062652063616c60008201527f6c6564207468726f7567682064656c656761746563616c6c0000000000000000602082015250565b600061265c603883611f17565b915061266782612600565b604082019050919050565b6000602082019050818103600083015261268b8161264f565b9050919050565b7f496e697469616c697a61626c653a20636f6e747261637420697320616c72656160008201527f647920696e697469616c697a6564000000000000000000000000000000000000602082015250565b60006126ee602e83611f17565b91506126f982612692565b604082019050919050565b6000602082019050818103600083015261271d816126e1565b9050919050565b6000819050919050565b6000819050919050565b600061275361274e61274984612724565b61272e565b612159565b9050919050565b61276381612738565b82525050565b600060208201905061277e600083018461275a565b92915050565b7f45524332304361707065643a2063617020657863656564656400000000000000600082015250565b60006127ba601983611f17565b91506127c582612784565b602082019050919050565b600060208201905081810360008301526127e9816127ad565b9050919050565b7f45524332303a2064656372656173656420616c6c6f77616e63652062656c6f7760008201527f207a65726f000000000000000000000000000000000000000000000000000000602082015250565b600061284c602583611f17565b9150612857826127f0565b604082019050919050565b6000602082019050818103600083015261287b8161283f565b9050919050565b7f4e487b7100000000000000000000000000000000000000000000000000000000600052601260045260246000fd5b60006128bc82612030565b91506128c783612030565b9250826128d7576128d6612882565b5b828204905092915050565b60006128ed82612030565b91506128f883612030565b925082820261290681612030565b9150828204841483151761291d5761291c61259d565b5b5092915050565b7f4f776e61626c653a206e6577206f776e657220697320746865207a65726f206160008201527f6464726573730000000000000000000000000000000000000000000000000000602082015250565b6000612980602683611f17565b915061298b82612924565b604082019050919050565b600060208201905081810360008301526129af81612973565b9050919050565b7f45524332303a20617070726f76652066726f6d20746865207a65726f2061646460008201527f7265737300000000000000000000000000000000000000000000000000000000602082015250565b6000612a12602483611f17565b9150612a1d826129b6565b604082019050919050565b60006020820190508181036000830152612a4181612a05565b9050919050565b7f45524332303a20617070726f766520746f20746865207a65726f20616464726560008201527f7373000000000000000000000000000000000000000000000000000000000000602082015250565b6000612aa4602283611f17565b9150612aaf82612a48565b604082019050919050565b60006020820190508181036000830152612ad381612a97565b9050919050565b7f45524332303a20696e73756666696369656e7420616c6c6f77616e6365000000600082015250565b6000612b10601d83611f17565b9150612b1b82612ada565b602082019050919050565b60006020820190508181036000830152612b3f81612b03565b9050919050565b7f45524332303a207472616e736665722066726f6d20746865207a65726f20616460008201527f6472657373000000000000000000000000000000000000000000000000000000602082015250565b6000612ba2602583611f17565b9150612bad82612b46565b604082019050919050565b60006020820190508181036000830152612bd181612b95565b9050919050565b7f45524332303a207472616e7366657220746f20746865207a65726f206164647260008201527f6573730000000000000000000000000000000000000000000000000000000000602082015250565b6000612c34602383611f17565b9150612c3f82612bd8565b604082019050919050565b60006020820190508181036000830152612c6381612c27565b9050919050565b7f45524332303a207472616e7366657220616d6f756e742065786365656473206260008201527f616c616e63650000000000000000000000000000000000000000000000000000602082015250565b6000612cc6602683611f17565b9150612cd182612c6a565b604082019050919050565b60006020820190508181036000830152612cf581612cb9565b9050919050565b612d058161237b565b8114612d1057600080fd5b50565b600081519050612d2281612cfc565b92915050565b600060208284031215612d3e57612d3d611fc8565b5b6000612d4c84828501612d13565b91505092915050565b7f45524331393637557067726164653a206e657720696d706c656d656e7461746960008201527f6f6e206973206e6f742055555053000000000000000000000000000000000000602082015250565b6000612db1602e83611f17565b9150612dbc82612d55565b604082019050919050565b60006020820190508181036000830152612de081612da4565b9050919050565b7f45524331393637557067726164653a20756e737570706f727465642070726f7860008201527f6961626c65555549440000000000000000000000000000000000000000000000602082015250565b6000612e43602983611f17565b9150612e4e82612de7565b604082019050919050565b60006020820190508181036000830152612e7281612e36565b9050919050565b7f4f776e61626c653a2063616c6c6572206973206e6f7420746865206f776e6572600082015250565b6000612eaf602083611f17565b9150612eba82612e79565b602082019050919050565b60006020820190508181036000830152612ede81612ea2565b9050919050565b7f45524332303a206275726e2066726f6d20746865207a65726f2061646472657360008201527f7300000000000000000000000000000000000000000000000000000000000000602082015250565b6000612f41602183611f17565b9150612f4c82612ee5565b604082019050919050565b60006020820190508181036000830152612f7081612f34565b9050919050565b7f45524332303a206275726e20616d6f756e7420657863656564732062616c616e60008201527f6365000000000000000000000000000000000000000000000000000000000000602082015250565b6000612fd3602283611f17565b9150612fde82612f77565b604082019050919050565b6000602082019050818103600083015261300281612fc6565b9050919050565b7f496e697469616c697a61626c653a20636f6e7472616374206973206e6f74206960008201527f6e697469616c697a696e67000000000000000000000000000000000000000000602082015250565b6000613065602b83611f17565b915061307082613009565b604082019050919050565b6000602082019050818103600083015261309481613058565b9050919050565b7f45524332303a206d696e7420746f20746865207a65726f206164647265737300600082015250565b60006130d1601f83611f17565b91506130dc8261309b565b602082019050919050565b60006020820190508181036000830152613100816130c4565b9050919050565b7f455243313936373a206e657720696d706c656d656e746174696f6e206973206e60008201527f6f74206120636f6e747261637400000000000000000000000000000000000000602082015250565b6000613163602d83611f17565b915061316e82613107565b604082019050919050565b6000602082019050818103600083015261319281613156565b9050919050565b60008190508160005260206000209050919050565b60006020601f8301049050919050565b600082821b905092915050565b6000600883026131fb7fffffffffffffffffffffffffffffffffffffffffffffffffffffffffffffffff826131be565b61320586836131be565b95508019841693508086168417925050509392505050565b600061323861323361322e84612030565b61272e565b612030565b9050919050565b6000819050919050565b6132528361321d565b61326661325e8261323f565b8484546131cb565b825550505050565b600090565b61327b61326e565b613286818484613249565b505050565b5b818110156132aa5761329f600082613273565b60018101905061328c565b5050565b601f8211156132ef576132c081613199565b6132c9846131ae565b810160208510156132d8578190505b6132ec6132e4856131ae565b83018261328b565b50505b505050565b600082821c905092915050565b6000613312600019846008026132f4565b1980831691505092915050565b600061332b8383613301565b9150826002028217905092915050565b61334482611f0c565b67ffffffffffffffff81111561335d5761335c6121f4565b5b6133678254612448565b6133728282856132ae565b600060209050601f8311600181146133a55760008415613393578287015190505b61339d858261331f565b865550613405565b601f1984166133b386613199565b60005b828110156133db578489015182556001820191506020850194506020810190506133b6565b868310156133f857848901516133f4601f891682613301565b8355505b6001600288020188555050505b505050505050565b7f416464726573733a2064656c65676174652063616c6c20746f206e6f6e2d636f60008201527f6e74726163740000000000000000000000000000000000000000000000000000602082015250565b6000613469602683611f17565b91506134748261340d565b604082019050919050565b600060208201905081810360008301526134988161345c565b9050919050565b600081519050919050565b600081905092915050565b60006134c08261349f565b6134ca81856134aa565b93506134da818560208601611f28565b80840191505092915050565b60006134f282846134b5565b91508190509291505056fe416464726573733a206c6f772d6c6576656c2064656c65676174652063616c6c206661696c6564a26469706673582212206fab2738a62ed801a111717ab6b3fb4b30966a8e304eb89d6b65f5f23d59553764736f6c63430008110033",
  "linkReferences": {},
  "deployedLinkReferences": {}
}